{
  "_format": "hh-sol-artifact-1",
  "contractName": "StudentRegistry",
  "sourceName": "contracts/Student.sol",
  "abi": [
    {
      "anonymous": false,
      "inputs": [
        {
          "indexed": false,
          "internalType": "uint256",
          "name": "id",
          "type": "uint256"
        },
        {
          "indexed": false,
          "internalType": "string",
          "name": "name",
          "type": "string"
        },
        {
          "indexed": false,
          "internalType": "string",
          "name": "surname",
          "type": "string"
        }
      ],
      "name": "StudentAdded",
      "type": "event"
    },
    {
      "anonymous": false,
      "inputs": [
        {
          "indexed": false,
          "internalType": "uint256",
          "name": "id",
          "type": "uint256"
        },
        {
          "indexed": false,
          "internalType": "string",
          "name": "name",
          "type": "string"
        },
        {
          "indexed": false,
          "internalType": "string",
          "name": "surname",
          "type": "string"
        }
      ],
      "name": "StudentUpdated",
      "type": "event"
    },
    {
      "inputs": [
        {
          "internalType": "uint256",
          "name": "_id",
          "type": "uint256"
        },
        {
          "internalType": "string",
          "name": "_name",
          "type": "string"
        },
        {
          "internalType": "string",
          "name": "_surname",
          "type": "string"
        },
        {
          "internalType": "string",
          "name": "_bod",
          "type": "string"
        },
        {
          "internalType": "string",
          "name": "_gender",
          "type": "string"
        },
        {
          "internalType": "string",
          "name": "_tel",
          "type": "string"
        },
        {
          "internalType": "string",
          "name": "_email",
          "type": "string"
        }
      ],
      "name": "addStudent",
      "outputs": [],
      "stateMutability": "nonpayable",
      "type": "function"
    },
    {
      "inputs": [],
      "name": "getAllStudents",
      "outputs": [
        {
          "components": [
            {
              "internalType": "uint256",
              "name": "id",
              "type": "uint256"
            },
            {
              "internalType": "string",
              "name": "name",
              "type": "string"
            },
            {
              "internalType": "string",
              "name": "surname",
              "type": "string"
            },
            {
              "internalType": "string",
              "name": "bod",
              "type": "string"
            },
            {
              "internalType": "string",
              "name": "gender",
              "type": "string"
            },
            {
              "internalType": "string",
              "name": "tel",
              "type": "string"
            },
            {
              "internalType": "string",
              "name": "email",
              "type": "string"
            }
          ],
          "internalType": "struct StudentRegistry.Student[]",
          "name": "",
          "type": "tuple[]"
        }
      ],
      "stateMutability": "view",
      "type": "function"
    },
    {
      "inputs": [
        {
          "internalType": "uint256",
          "name": "_id",
          "type": "uint256"
        }
      ],
      "name": "getStudent",
      "outputs": [
        {
          "components": [
            {
              "internalType": "uint256",
              "name": "id",
              "type": "uint256"
            },
            {
              "internalType": "string",
              "name": "name",
              "type": "string"
            },
            {
              "internalType": "string",
              "name": "surname",
              "type": "string"
            },
            {
              "internalType": "string",
              "name": "bod",
              "type": "string"
            },
            {
              "internalType": "string",
              "name": "gender",
              "type": "string"
            },
            {
              "internalType": "string",
              "name": "tel",
              "type": "string"
            },
            {
              "internalType": "string",
              "name": "email",
              "type": "string"
            }
          ],
          "internalType": "struct StudentRegistry.Student",
          "name": "",
          "type": "tuple"
        }
      ],
      "stateMutability": "view",
      "type": "function"
    },
    {
      "inputs": [
        {
          "internalType": "uint256",
          "name": "",
          "type": "uint256"
        }
      ],
      "name": "students",
      "outputs": [
        {
          "internalType": "uint256",
          "name": "id",
          "type": "uint256"
        },
        {
          "internalType": "string",
          "name": "name",
          "type": "string"
        },
        {
          "internalType": "string",
          "name": "surname",
          "type": "string"
        },
        {
          "internalType": "string",
          "name": "bod",
          "type": "string"
        },
        {
          "internalType": "string",
          "name": "gender",
          "type": "string"
        },
        {
          "internalType": "string",
          "name": "tel",
          "type": "string"
        },
        {
          "internalType": "string",
          "name": "email",
          "type": "string"
        }
      ],
      "stateMutability": "view",
      "type": "function"
    },
    {
      "inputs": [
        {
          "internalType": "uint256",
          "name": "_id",
          "type": "uint256"
        },
        {
          "internalType": "string",
          "name": "_name",
          "type": "string"
        },
        {
          "internalType": "string",
          "name": "_surname",
          "type": "string"
        },
        {
          "internalType": "string",
          "name": "_bod",
          "type": "string"
        },
        {
          "internalType": "string",
          "name": "_gender",
          "type": "string"
        },
        {
          "internalType": "string",
          "name": "_tel",
          "type": "string"
        },
        {
          "internalType": "string",
          "name": "_email",
          "type": "string"
        }
      ],
      "name": "updateStudent",
      "outputs": [],
      "stateMutability": "nonpayable",
      "type": "function"
    }
  ],
  "bytecode": "0x6080604052348015600f57600080fd5b50611c3b8061001f6000396000f3fe608060405234801561001057600080fd5b50600436106100575760003560e01c806306ead22e1461005c578063642f91631461009257806366bb9330146100c25780638b124b6e146100de578063e9e30927146100fa575b600080fd5b6100766004803603810190610071919061106b565b610118565b6040516100899796959493929190611137565b60405180910390f35b6100ac60048036038101906100a7919061106b565b61049a565b6040516100b991906112e8565b60405180910390f35b6100dc60048036038101906100d7919061143f565b6108c6565b005b6100f860048036038101906100f3919061143f565b610a6a565b005b610102610c0f565b60405161010f919061170a565b60405180910390f35b6000818154811061012857600080fd5b90600052602060002090600702016000915090508060000154908060010180546101519061175b565b80601f016020809104026020016040519081016040528092919081815260200182805461017d9061175b565b80156101ca5780601f1061019f576101008083540402835291602001916101ca565b820191906000526020600020905b8154815290600101906020018083116101ad57829003601f168201915b5050505050908060020180546101df9061175b565b80601f016020809104026020016040519081016040528092919081815260200182805461020b9061175b565b80156102585780601f1061022d57610100808354040283529160200191610258565b820191906000526020600020905b81548152906001019060200180831161023b57829003601f168201915b50505050509080600301805461026d9061175b565b80601f01602080910402602001604051908101604052809291908181526020018280546102999061175b565b80156102e65780601f106102bb576101008083540402835291602001916102e6565b820191906000526020600020905b8154815290600101906020018083116102c957829003601f168201915b5050505050908060040180546102fb9061175b565b80601f01602080910402602001604051908101604052809291908181526020018280546103279061175b565b80156103745780601f1061034957610100808354040283529160200191610374565b820191906000526020600020905b81548152906001019060200180831161035757829003601f168201915b5050505050908060050180546103899061175b565b80601f01602080910402602001604051908101604052809291908181526020018280546103b59061175b565b80156104025780601f106103d757610100808354040283529160200191610402565b820191906000526020600020905b8154815290600101906020018083116103e557829003601f168201915b5050505050908060060180546104179061175b565b80601f01602080910402602001604051908101604052809291908181526020018280546104439061175b565b80156104905780601f1061046557610100808354040283529160200191610490565b820191906000526020600020905b81548152906001019060200180831161047357829003601f168201915b5050505050905087565b6104a2610fe4565b60006001600084815260200190815260200160002054036104f8576040517f08c379a00000000000000000000000000000000000000000000000000000000081526004016104ef906117fe565b60405180910390fd5b6000600180600085815260200190815260200160002054610519919061184d565b90506000818154811061052f5761052e611881565b5b90600052602060002090600702016040518060e0016040529081600082015481526020016001820180546105629061175b565b80601f016020809104026020016040519081016040528092919081815260200182805461058e9061175b565b80156105db5780601f106105b0576101008083540402835291602001916105db565b820191906000526020600020905b8154815290600101906020018083116105be57829003601f168201915b505050505081526020016002820180546105f49061175b565b80601f01602080910402602001604051908101604052809291908181526020018280546106209061175b565b801561066d5780601f106106425761010080835404028352916020019161066d565b820191906000526020600020905b81548152906001019060200180831161065057829003601f168201915b505050505081526020016003820180546106869061175b565b80601f01602080910402602001604051908101604052809291908181526020018280546106b29061175b565b80156106ff5780601f106106d4576101008083540402835291602001916106ff565b820191906000526020600020905b8154815290600101906020018083116106e257829003601f168201915b505050505081526020016004820180546107189061175b565b80601f01602080910402602001604051908101604052809291908181526020018280546107449061175b565b80156107915780601f1061076657610100808354040283529160200191610791565b820191906000526020600020905b81548152906001019060200180831161077457829003601f168201915b505050505081526020016005820180546107aa9061175b565b80601f01602080910402602001604051908101604052809291908181526020018280546107d69061175b565b80156108235780601f106107f857610100808354040283529160200191610823565b820191906000526020600020905b81548152906001019060200180831161080657829003601f168201915b5050505050815260200160068201805461083c9061175b565b80601f01602080910402602001604051908101604052809291908181526020018280546108689061175b565b80156108b55780601f1061088a576101008083540402835291602001916108b5565b820191906000526020600020905b81548152906001019060200180831161089857829003601f168201915b505050505081525050915050919050565b600060016000898152602001908152602001600020540361091c576040517f08c379a0000000000000000000000000000000000000000000000000000000008152600401610913906117fe565b60405180910390fd5b600060018060008a81526020019081526020016000205461093d919061184d565b90506040518060e00160405280898152602001888152602001878152602001868152602001858152602001848152602001838152506000828154811061098657610985611881565b5b90600052602060002090600702016000820151816000015560208201518160010190816109b39190611a5c565b5060408201518160020190816109c99190611a5c565b5060608201518160030190816109df9190611a5c565b5060808201518160040190816109f59190611a5c565b5060a0820151816005019081610a0b9190611a5c565b5060c0820151816006019081610a219190611a5c565b509050507f0cafaa259cda0a7e8e69583783cbc2f328116d4fc438c6eeba3034429f92b43d888888604051610a5893929190611b2e565b60405180910390a15050505050505050565b6000600160008981526020019081526020016000205414610ac0576040517f08c379a0000000000000000000000000000000000000000000000000000000008152600401610ab790611be5565b60405180910390fd5b60006040518060e00160405280898152602001888152602001878152602001868152602001858152602001848152602001838152509080600181540180825580915050600190039060005260206000209060070201600090919091909150600082015181600001556020820151816001019081610b3d9190611a5c565b506040820151816002019081610b539190611a5c565b506060820151816003019081610b699190611a5c565b506080820151816004019081610b7f9190611a5c565b5060a0820151816005019081610b959190611a5c565b5060c0820151816006019081610bab9190611a5c565b50505060008054905060016000898152602001908152602001600020819055507f8f2389bb456b93c3e9fe508739c041611b37c490e217f5aa157162a700ec4df7878787604051610bfe93929190611b2e565b60405180910390a150505050505050565b60606000805480602002602001604051908101604052809291908181526020016000905b82821015610fdb57838290600052602060002090600702016040518060e001604052908160008201548152602001600182018054610c709061175b565b80601f0160208091040260200160405190810160405280929190818152602001828054610c9c9061175b565b8015610ce95780601f10610cbe57610100808354040283529160200191610ce9565b820191906000526020600020905b815481529060010190602001808311610ccc57829003601f168201915b50505050508152602001600282018054610d029061175b565b80601f0160208091040260200160405190810160405280929190818152602001828054610d2e9061175b565b8015610d7b5780601f10610d5057610100808354040283529160200191610d7b565b820191906000526020600020905b815481529060010190602001808311610d5e57829003601f168201915b50505050508152602001600382018054610d949061175b565b80601f0160208091040260200160405190810160405280929190818152602001828054610dc09061175b565b8015610e0d5780601f10610de257610100808354040283529160200191610e0d565b820191906000526020600020905b815481529060010190602001808311610df057829003601f168201915b50505050508152602001600482018054610e269061175b565b80601f0160208091040260200160405190810160405280929190818152602001828054610e529061175b565b8015610e9f5780601f10610e7457610100808354040283529160200191610e9f565b820191906000526020600020905b815481529060010190602001808311610e8257829003601f168201915b50505050508152602001600582018054610eb89061175b565b80601f0160208091040260200160405190810160405280929190818152602001828054610ee49061175b565b8015610f315780601f10610f0657610100808354040283529160200191610f31565b820191906000526020600020905b815481529060010190602001808311610f1457829003601f168201915b50505050508152602001600682018054610f4a9061175b565b80601f0160208091040260200160405190810160405280929190818152602001828054610f769061175b565b8015610fc35780601f10610f9857610100808354040283529160200191610fc3565b820191906000526020600020905b815481529060010190602001808311610fa657829003601f168201915b50505050508152505081526020019060010190610c33565b50505050905090565b6040518060e00160405280600081526020016060815260200160608152602001606081526020016060815260200160608152602001606081525090565b6000604051905090565b600080fd5b600080fd5b6000819050919050565b61104881611035565b811461105357600080fd5b50565b6000813590506110658161103f565b92915050565b6000602082840312156110815761108061102b565b5b600061108f84828501611056565b91505092915050565b6110a181611035565b82525050565b600081519050919050565b600082825260208201905092915050565b60005b838110156110e15780820151818401526020810190506110c6565b60008484015250505050565b6000601f19601f8301169050919050565b6000611109826110a7565b61111381856110b2565b93506111238185602086016110c3565b61112c816110ed565b840191505092915050565b600060e08201905061114c600083018a611098565b818103602083015261115e81896110fe565b9050818103604083015261117281886110fe565b9050818103606083015261118681876110fe565b9050818103608083015261119a81866110fe565b905081810360a08301526111ae81856110fe565b905081810360c08301526111c281846110fe565b905098975050505050505050565b6111d981611035565b82525050565b600082825260208201905092915050565b60006111fb826110a7565b61120581856111df565b93506112158185602086016110c3565b61121e816110ed565b840191505092915050565b600060e08301600083015161124160008601826111d0565b506020830151848203602086015261125982826111f0565b9150506040830151848203604086015261127382826111f0565b9150506060830151848203606086015261128d82826111f0565b915050608083015184820360808601526112a782826111f0565b91505060a083015184820360a08601526112c182826111f0565b91505060c083015184820360c08601526112db82826111f0565b9150508091505092915050565b600060208201905081810360008301526113028184611229565b905092915050565b600080fd5b600080fd5b7f4e487b7100000000000000000000000000000000000000000000000000000000600052604160045260246000fd5b61134c826110ed565b810181811067ffffffffffffffff8211171561136b5761136a611314565b5b80604052505050565b600061137e611021565b905061138a8282611343565b919050565b600067ffffffffffffffff8211156113aa576113a9611314565b5b6113b3826110ed565b9050602081019050919050565b82818337600083830152505050565b60006113e26113dd8461138f565b611374565b9050828152602081018484840111156113fe576113fd61130f565b5b6114098482856113c0565b509392505050565b600082601f8301126114265761142561130a565b5b81356114368482602086016113cf565b91505092915050565b600080600080600080600060e0888a03121561145e5761145d61102b565b5b600061146c8a828b01611056565b975050602088013567ffffffffffffffff81111561148d5761148c611030565b5b6114998a828b01611411565b965050604088013567ffffffffffffffff8111156114ba576114b9611030565b5b6114c68a828b01611411565b955050606088013567ffffffffffffffff8111156114e7576114e6611030565b5b6114f38a828b01611411565b945050608088013567ffffffffffffffff81111561151457611513611030565b5b6115208a828b01611411565b93505060a088013567ffffffffffffffff81111561154157611540611030565b5b61154d8a828b01611411565b92505060c088013567ffffffffffffffff81111561156e5761156d611030565b5b61157a8a828b01611411565b91505092959891949750929550565b600081519050919050565b600082825260208201905092915050565b6000819050602082019050919050565b600060e0830160008301516115cd60008601826111d0565b50602083015184820360208601526115e582826111f0565b915050604083015184820360408601526115ff82826111f0565b9150506060830151848203606086015261161982826111f0565b9150506080830151848203608086015261163382826111f0565b91505060a083015184820360a086015261164d82826111f0565b91505060c083015184820360c086015261166782826111f0565b9150508091505092915050565b600061168083836115b5565b905092915050565b6000602082019050919050565b60006116a082611589565b6116aa8185611594565b9350836020820285016116bc856115a5565b8060005b858110156116f857848403895281516116d98582611674565b94506116e483611688565b925060208a019950506001810190506116c0565b50829750879550505050505092915050565b600060208201905081810360008301526117248184611695565b905092915050565b7f4e487b7100000000000000000000000000000000000000000000000000000000600052602260045260246000fd5b6000600282049050600182168061177357607f821691505b6020821081036117865761178561172c565b5b50919050565b7f53747564656e742077697468207468697320494420646f6573206e6f7420657860008201527f6973740000000000000000000000000000000000000000000000000000000000602082015250565b60006117e86023836110b2565b91506117f38261178c565b604082019050919050565b60006020820190508181036000830152611817816117db565b9050919050565b7f4e487b7100000000000000000000000000000000000000000000000000000000600052601160045260246000fd5b600061185882611035565b915061186383611035565b925082820390508181111561187b5761187a61181e565b5b92915050565b7f4e487b7100000000000000000000000000000000000000000000000000000000600052603260045260246000fd5b60008190508160005260206000209050919050565b60006020601f8301049050919050565b600082821b905092915050565b6000600883026119127fffffffffffffffffffffffffffffffffffffffffffffffffffffffffffffffff826118d5565b61191c86836118d5565b95508019841693508086168417925050509392505050565b6000819050919050565b600061195961195461194f84611035565b611934565b611035565b9050919050565b6000819050919050565b6119738361193e565b61198761197f82611960565b8484546118e2565b825550505050565b600090565b61199c61198f565b6119a781848461196a565b505050565b5b818110156119cb576119c0600082611994565b6001810190506119ad565b5050565b601f821115611a10576119e1816118b0565b6119ea846118c5565b810160208510156119f9578190505b611a0d611a05856118c5565b8301826119ac565b50505b505050565b600082821c905092915050565b6000611a3360001984600802611a15565b1980831691505092915050565b6000611a4c8383611a22565b9150826002028217905092915050565b611a65826110a7565b67ffffffffffffffff811115611a7e57611a7d611314565b5b611a88825461175b565b611a938282856119cf565b600060209050601f831160018114611ac65760008415611ab4578287015190505b611abe8582611a40565b865550611b26565b601f198416611ad4866118b0565b60005b82811015611afc57848901518255600182019150602085019450602081019050611ad7565b86831015611b195784890151611b15601f891682611a22565b8355505b6001600288020188555050505b505050505050565b6000606082019050611b436000830186611098565b8181036020830152611b5581856110fe565b90508181036040830152611b6981846110fe565b9050949350505050565b7f53747564656e742077697468207468697320494420616c72656164792065786960008201527f7374730000000000000000000000000000000000000000000000000000000000602082015250565b6000611bcf6023836110b2565b9150611bda82611b73565b604082019050919050565b60006020820190508181036000830152611bfe81611bc2565b905091905056fea26469706673582212205a8e40bab0dd753bf5728ac6526123b38cf196023b2ae0a9893c73da52baa1bc64736f6c634300081c0033",
  "linkReferences": {},
  "deployedLinkReferences": {}
}